:100000000C942A000C94A2010C94C8010C94470093
:100010000C9447000C9447000C9447000C94470044
:100020000C9447000C9447000C9447000C94470034
:100030000C9447000C9440030C9447000C94470028
:100040000C9447000C9447000C9447000C94470014
:100050000C94470011241FBECFE5D8E0DEBFCDBF12
:1000600011E0A0E6B0E0EEECFDE002C005900D92DC
:10007000AE37B107D9F721E0AEE7B1E001C01D927C
:10008000AA39B207E1F70E9406020C94E5060C9427
:100090000000982F92959F708F702AE0929F800D9C
:1000A000112408956AE00E94F003292F30E1839F14
:1000B000C0011124822B08950F931F93CF93DF93D8
:1000C0008C010E94B80080ED0E94C40080E00E9474
:1000D000C400C0E0D0E0F801EC0FFD1F80810E9459
:1000E00052000E94C4002196C730D105A1F7DF91CC
:1000F000CF911F910F910C94BE00EF92FF920F933E
:100100001F93CF93DF938C010E94B80080ED0E9473
:10011000C40080E00E94C4000E94B80081ED0E94EB
:10012000C400C0E0D0E07801EC0EFD1E81E00E942A
:10013000CB000E944900F70180832196C630D1058B
:1001400091F780E00E94CB000E944900F80186836D
:10015000DF91CF911F910F91FF90EF900C94BE0013
:10016000789485B7826085BF8BB780648BBF089514
:1001700084EA86BF06B607FEFDCF089584E986BFF0
:1001800006B604FCFDCF089583B984E886BF06B6A1
:1001900007FEFDCF089520E4829FC00111248468EA
:1001A00086BF06B607FEFDCF83B108958FE280B902
:1001B0000895DA98DB9A2BB3982F907F2F70922BAB
:1001C0009BBBECECFAE03197F1F700C00000DB9844
:1001D000ECECFAE03197F1F700C00000DB9A2BB3AA
:1001E000F0E18F9FC00111242F70282B2BBB8CECCA
:1001F0009AE00197F1F700C00000DB98ECECFAE020
:100200003197F1F700C0000008958FEF8ABB2CEC06
:1002100084E891E0215080409040E1F700C083E302
:100220000E94D9008CEC9AE00197F1F700C0000021
:1002300082E30E94D9008CEC9AE00197F1F700C0AC
:10024000000088E20E94D90088E00E94D90081E085
:100250000E94D90086E00E94D9008FE00E94D90058
:100260008CEC9AE00197F1F700C00000089581E05E
:100270000C94D900DA9ADB9A2BB3982F907F2F70C9
:10028000922B9BBBECECFAE03197F1F700C0000039
:10029000DB98ECECFAE03197F1F700C00000DB9A54
:1002A0002BB3F0E18F9FC00111242F70282B2BBBA3
:1002B0008CEC9AE00197F1F700C00000DB98E6E6CD
:1002C000F5E03197F1F7000008950E943A0180E0CF
:1002D00090E0089590E4699F800D112480580C945B
:1002E000D9000F931F93CF93DF9300D0CDB7DEB724
:1002F00049835A830E946A014981042F5A81152F2C
:10030000F80181918F01882361F00E943A012FEF5B
:100310008FE593E0215080409040E1F700C000005D
:10032000EFCF0F900F90DF91CF911F910F91089514
:1003300085B7877F85BF85B78B7F85BF8BB7806883
:100340008BBF08951F920F920FB60F9211242F9317
:100350003F934F935F936F937F938F939F93AF934D
:10036000BF93EF93FF930E942E020E94A902FF9178
:10037000EF91BF91AF919F918F917F916F915F911D
:100380004F913F912F910F900FBE0F901F90189596
:100390001F920F920FB60F9211242F933F934F93FA
:1003A0005F936F937F938F939F93AF93BF93EF93DD
:1003B000FF938091820190918301019664E070E047
:1003C0000E94FC0390938301809382018EE690E06B
:1003D0000E945C000E9410032FEF8FED90E12150EE
:1003E00080409040E1F700C00000FF91EF91BF9185
:1003F000AF919F918F917F916F915F914F913F91BD
:100400002F910F900FBE0F901F9018950E94D6004D
:100410000E9405010E9437018EE690E00E945C0078
:100420000E945D020E948C0285E090E00E9412030F
:100430000E9410030E94B0000E949801FFCF80E04C
:1004400090E0FC01E259FF4F2081FC01EB58FF4F87
:100450002083019686309105A1F7089585E790E005
:100460000E947D0060E080E00E946A01E0918201CC
:10047000F09183019091750080917600EE0FFF1F3F
:10048000E257FF4F21812F9320812F931F929F933B
:100490001F928F9388EB90E09F938F938CE790E06F
:1004A0009F938F930E9424048DB79EB70A960FB630
:1004B000F8949EBF0FBE8DBF089561E080E00E945A
:1004C0006A01609180017091810140918C0050918E
:1004D0008D0020917E0130917F0180918A00909162
:1004E0008B007F936F935F934F933F932F939F93D3
:1004F0008F9385EC90E09F938F938CE790E09F9390
:100500008F930E9424048DB79EB70C960FB6F89473
:100510009EBF0FBE8DBF089587B3836087BBC19A0E
:100520000895C1982FEF8FEA91E0215080409040CC
:10053000E1F700C00000C19A2FEF8FEA91E021504F
:1005400080409040E1F700C000000895C0980C94EE
:100550009102EF92FF921F93CF93DF9300D000D0D0
:10056000CDB7DEB78091820190918301892B39F05C
:100570008091820190918301029709F047C0809198
:10058000760090E09C838B838091750090E09A8345
:100590008983AB81BC81E980FA808091820190914E
:1005A000830197FD01968E7F86579F4FFC016081E6
:1005B0007181809182019091830197FD01968E7FD8
:1005C00082589E4FFC01408151811CE31A9F90018B
:1005D0001B9F300D11242E0D3F1D169FC001179F2C
:1005E000900D1124840F951F281739077CF08091F6
:1005F00082019091830101969093830180938201FF
:100600008EE690E00E945C000E94A6020F900F9080
:100610000F900F90DF91CF911F91FF90EF90089571
:10062000C09A0895899A90BD89B988E98AB98EE8F7
:1006300080BD08955D9BFECF8CB908950F931F93E5
:10064000CF93DF93EC018C01FE0101900020E9F7CC
:100650003197EC1BFD0BC8018C1B9D0B8E179F0760
:1006600030F4F80181918F010E941A03EDCFDF91E0
:10067000CF911F910F9108955F9BFECF8CB108958C
:100680001F920F920FB60F9211242F933F934F9307
:100690005F936F937F938F939F93AF93BF93CF930A
:1006A000EF93FF938091840190918501CCB1FC017F
:1006B000EA57FE4FC083CA3009F07BC080918601A3
:1006C0008735A9F586E891E00E941E038091870195
:1006D00090E0C097C89F9001C99F300D1124809170
:1006E000880190E0C097280F391F4091890150E0A0
:1006F00040535109C49FC001C59F900D11244091E2
:100700008A0150E040535109840F951F6CE370E05B
:100710000E94FC03260F371F30938B0020938A0022
:1007200090937F0180937E010E945D023DC08234E0
:10073000B9F586E891E00E941E038091870190E060
:10074000C097C89F9001C99F300D112480918801E6
:1007500090E0C097280F391F4091890150E0405325
:100760005109C49FC001C59F900D112440918A0179
:1007700050E040535109840F951F6CE370E00E94D4
:10078000FC03260F371F30938D0020938C0090932D
:100790008101809380010E945D020E941F0204C0BB
:1007A0008AE091E00E941E0310928501109284015C
:1007B00005C001969093850180938401FF91EF918C
:1007C000CF91BF91AF919F918F917F916F915F91E9
:1007D0004F913F912F910F900FBE0F901F90189542
:1007E000991B79E004C0991F961708F0961B881F83
:1007F0007A95C9F78095089597FB072E16F4009413
:1008000007D077FD09D00E94100407FC05D03EF404
:10081000909581959F4F0895709561957F4F0895AC
:10082000AA1BBB1B51E107C0AA1FBB1FA617B70716
:1008300010F0A61BB70B881F991F5A95A9F7809532
:100840009095BC01CD010895A0E0B0E0EAE2F4E0AB
:100850000C94BE06AE01475F5F4F6F8178858D8136
:100860009E810E943604E2E00C94DA06ACE0B0E02F
:10087000ECE3F4E00C94AE067C016B018A01FC0110
:1008800017821682838181FFBDC1CE0101964C0182
:10089000F7019381F60193FD859193FF81916F019B
:1008A000882309F4ABC1853239F493FD859193FF18
:1008B00081916F01853229F4B70190E00E941E06F4
:1008C000E7CF512C312C20E02032A0F48B3269F09C
:1008D00030F4803259F0833269F420612CC08D32BB
:1008E00039F0803339F4216026C02260246023C0AF
:1008F000286021C027FD27C030ED380F3A3078F44A
:1009000026FF06C0FAE05F9E300D1124532E13C05F
:100910008AE0389E300D1124332E20620CC08E32B6
:1009200021F426FD6BC1206406C08C3611F42068CA
:1009300002C0883641F4F60193FD859193FF8191C1
:100940006F018111C1CF982F9F7D9554933028F46A
:100950000C5F1F4FFFE3F9830DC0833631F08337FF
:1009600071F0833509F05BC022C0F8018081898372
:100970000E5F1F4F44244394512C540115C038017D
:10098000F2E06F0E711CF801A080B18026FF03C059
:10099000652D70E002C06FEF7FEFC5012C870E94CC
:1009A00013062C0183012C852F77222E17C03801C6
:1009B000F2E06F0E711CF801A080B18026FF03C029
:1009C000652D70E002C06FEF7FEFC5012C870E949C
:1009D00008062C012C852068222E830123FC1BC0D5
:1009E000832D90E048165906B0F4B70180E290E0FC
:1009F0000E941E063A94F4CFF50127FC859127FE4C
:100A000081915F01B70190E00E941E0631103A9477
:100A1000F1E04F1A51084114510471F7E5C08436D2
:100A200011F0893639F5F80127FF07C0608171811F
:100A3000828193810C5F1F4F08C06081718188277C
:100A400077FD8095982F0E5F1F4F2F76B22E97FF60
:100A500009C090958095709561957F4F8F4F9F4FFE
:100A60002068B22E2AE030E0A4010E945006A82E91
:100A7000A81844C0853729F42F7EB22E2AE030E032
:100A800025C0F22FF97FBF2E8F36C1F018F48835BC
:100A900079F0B4C0803719F0883721F0AFC02F2F1C
:100AA0002061B22EB4FE0DC08B2D8460B82E09C01B
:100AB00024FF0AC09F2F9660B92E06C028E030E0C0
:100AC00005C020E130E002C020E132E0F801B7FECD
:100AD00007C060817181828193810C5F1F4F06C0C6
:100AE0006081718180E090E00E5F1F4FA4010E9441
:100AF0005006A82EA818FB2DFF77BF2EB6FE0BC000
:100B00002B2D2E7FA51450F4B4FE0AC0B2FC08C0F1
:100B10002B2D2E7E05C07A2C2B2D03C07A2C01C0E4
:100B2000752C24FF0DC0FE01EA0DF11D808180337C
:100B300011F4297E09C022FF06C07394739404C087
:100B4000822F867809F0739423FD13C020FF06C01E
:100B50005A2C731418F4530C5718732C731468F42C
:100B6000B70180E290E02C870E941E0673942C85CA
:100B7000F5CF731410F4371801C0312C24FF12C0C4
:100B8000B70180E390E02C870E941E062C8522FF8F
:100B900017C021FF03C088E590E002C088E790E01D
:100BA000B7010CC0822F867859F021FD02C080E287
:100BB00001C08BE227FD8DE2B70190E00E941E0686
:100BC000A51438F4B70180E390E00E941E065A9401
:100BD000F7CFAA94F401EA0DF11D8081B70190E0EE
:100BE0000E941E06A110F5CF332009F451CEB701A3
:100BF00080E290E00E941E063A94F6CFF7018681CB
:100C0000978102C08FEF9FEF2C96E2E10C94CA0609
:100C1000FC010590615070400110D8F780959095C7
:100C20008E0F9F1F0895FC016150704001900110CC
:100C3000D8F7809590958E0F9F1F08950F931F935F
:100C4000CF93DF93182F092FEB018B8181FD03C018
:100C50008FEF9FEF20C082FF10C04E815F812C81FB
:100C60003D81421753077CF4E881F9819F012F5F92
:100C70003F4F39832883108306C0E885F985812F8B
:100C80000995892B29F72E813F812F5F3F4F3F83A5
:100C90002E83812F902FDF91CF911F910F91089577
:100CA000FA01AA27283051F1203181F1E8946F939D
:100CB0006E7F6E5F7F4F8F4F9F4FAF4FB1E03ED043
:100CC000B4E03CD0670F781F891F9A1FA11D680FE1
:100CD000791F8A1F911DA11D6A0F711D811D911D14
:100CE000A11D20D009F468943F912AE0269F112489
:100CF0003019305D3193DEF6CF010895462F4770ED
:100D0000405D4193B3E00FD0C9F7F6CF462F4F7047
:100D1000405D4A3318F0495D31FD4052419302D0A5
:100D2000A9F7EACFB4E0A69597958795779567954B
:100D3000BA95C9F700976105710508959B01AC014B
:100D40000A2E06945795479537952795BA95C9F772
:100D5000620F731F841F951FA01D08952F923F924D
:100D60004F925F926F927F928F929F92AF92BF92BB
:100D7000CF92DF92EF92FF920F931F93CF93DF9367
:100D8000CDB7DEB7CA1BDB0B0FB6F894DEBF0FBEC4
:100D9000CDBF09942A88398848885F846E847D8411
:100DA0008C849B84AA84B984C884DF80EE80FD8013
:100DB0000C811B81AA81B981CE0FD11D0FB6F89489
:0E0DC000DEBF0FBECDBFED010895F894FFCF4A
:100DCE009C00A000A400A800AC00B000B40000007D
:100DDE0000011F0C10000000011F0C10000000028B
:100DEE00000000006501000000001E000500DE008E
:100DFE00E900F400FF000000000000004D6F6E00DF
:100E0E005475650057656400546875004672690034
:100E1E005361740053756E00253032643A253032BA
:100E2E0064202573005720253032643A2530326411
:100E3E00204220253032643A253032642000576F2C
:100E4E00726B202020202020005374727420627256
:100E5E006B3F2000427265616B20202020200043F2
:100E6E006F6E7420776F726B3F00436F756C6420EA
:100E7E006E6F7420756E6465727374616E64206338
:100E8E006F6D6D616E642E205365742074696D658F
:100E9E0020666F7220776F726B5C627265616B2079
:100EAE0073657373696F6E732076696120574D4D4C
:100EBE005353206F7220424D4D53532C20666F7248
:100ECE00206578616D706C653A2057333030302C68
:0E0EDE00207468656E2042303530302E0A00D8
:00000001FF
